{
  "_format": "hh-sol-artifact-1",
  "contractName": "QuidaLending",
  "sourceName": "contracts/QuidaLending.sol",
  "abi": [
    {
      "inputs": [],
      "name": "NeedsMoreThanZero",
      "type": "error"
    },
    {
      "inputs": [
        {
          "internalType": "address",
          "name": "token",
          "type": "address"
        }
      ],
      "name": "TokenNotAllowed",
      "type": "error"
    },
    {
      "inputs": [],
      "name": "TransferFailed",
      "type": "error"
    },
    {
      "anonymous": false,
      "inputs": [
        {
          "indexed": true,
          "internalType": "address",
          "name": "token",
          "type": "address"
        },
        {
          "indexed": true,
          "internalType": "address",
          "name": "priceFeed",
          "type": "address"
        }
      ],
      "name": "AllowedTokenSet",
      "type": "event"
    },
    {
      "anonymous": false,
      "inputs": [
        {
          "indexed": true,
          "internalType": "address",
          "name": "account",
          "type": "address"
        },
        {
          "indexed": true,
          "internalType": "address",
          "name": "token",
          "type": "address"
        },
        {
          "indexed": true,
          "internalType": "uint256",
          "name": "amount",
          "type": "uint256"
        }
      ],
      "name": "Borrow",
      "type": "event"
    },
    {
      "anonymous": false,
      "inputs": [
        {
          "indexed": true,
          "internalType": "address",
          "name": "account",
          "type": "address"
        },
        {
          "indexed": true,
          "internalType": "address",
          "name": "token",
          "type": "address"
        },
        {
          "indexed": true,
          "internalType": "uint256",
          "name": "amount",
          "type": "uint256"
        }
      ],
      "name": "Deposit",
      "type": "event"
    },
    {
      "anonymous": false,
      "inputs": [
        {
          "indexed": true,
          "internalType": "address",
          "name": "account",
          "type": "address"
        },
        {
          "indexed": true,
          "internalType": "address",
          "name": "repayToken",
          "type": "address"
        },
        {
          "indexed": true,
          "internalType": "address",
          "name": "rewardToken",
          "type": "address"
        },
        {
          "indexed": false,
          "internalType": "uint256",
          "name": "halfDebtInUSD",
          "type": "uint256"
        },
        {
          "indexed": false,
          "internalType": "address",
          "name": "liquidator",
          "type": "address"
        }
      ],
      "name": "Liquidate",
      "type": "event"
    },
    {
      "anonymous": false,
      "inputs": [
        {
          "indexed": true,
          "internalType": "address",
          "name": "previousOwner",
          "type": "address"
        },
        {
          "indexed": true,
          "internalType": "address",
          "name": "newOwner",
          "type": "address"
        }
      ],
      "name": "OwnershipTransferred",
      "type": "event"
    },
    {
      "anonymous": false,
      "inputs": [
        {
          "indexed": true,
          "internalType": "address",
          "name": "account",
          "type": "address"
        },
        {
          "indexed": true,
          "internalType": "address",
          "name": "token",
          "type": "address"
        },
        {
          "indexed": true,
          "internalType": "uint256",
          "name": "amount",
          "type": "uint256"
        }
      ],
      "name": "Repay",
      "type": "event"
    },
    {
      "anonymous": false,
      "inputs": [
        {
          "indexed": true,
          "internalType": "address",
          "name": "account",
          "type": "address"
        },
        {
          "indexed": true,
          "internalType": "address",
          "name": "token",
          "type": "address"
        },
        {
          "indexed": true,
          "internalType": "uint256",
          "name": "amount",
          "type": "uint256"
        }
      ],
      "name": "Withdraw",
      "type": "event"
    },
    {
      "inputs": [],
      "name": "LIQUIDATION_REWARD",
      "outputs": [
        {
          "internalType": "uint256",
          "name": "",
          "type": "uint256"
        }
      ],
      "stateMutability": "view",
      "type": "function"
    },
    {
      "inputs": [],
      "name": "LIQUIDATION_THRESHOLD",
      "outputs": [
        {
          "internalType": "uint256",
          "name": "",
          "type": "uint256"
        }
      ],
      "stateMutability": "view",
      "type": "function"
    },
    {
      "inputs": [],
      "name": "MIN_HEALH_FACTOR",
      "outputs": [
        {
          "internalType": "uint256",
          "name": "",
          "type": "uint256"
        }
      ],
      "stateMutability": "view",
      "type": "function"
    },
    {
      "inputs": [
        {
          "internalType": "address",
          "name": "",
          "type": "address"
        }
      ],
      "name": "PriceFeedAddress",
      "outputs": [
        {
          "internalType": "address",
          "name": "",
          "type": "address"
        }
      ],
      "stateMutability": "view",
      "type": "function"
    },
    {
      "inputs": [
        {
          "internalType": "address",
          "name": "token",
          "type": "address"
        },
        {
          "internalType": "uint256",
          "name": "amount",
          "type": "uint256"
        }
      ],
      "name": "borrow",
      "outputs": [],
      "stateMutability": "nonpayable",
      "type": "function"
    },
    {
      "inputs": [
        {
          "internalType": "address",
          "name": "token",
          "type": "address"
        },
        {
          "internalType": "uint256",
          "name": "amount",
          "type": "uint256"
        }
      ],
      "name": "deposit",
      "outputs": [],
      "stateMutability": "nonpayable",
      "type": "function"
    },
    {
      "inputs": [
        {
          "internalType": "address",
          "name": "user",
          "type": "address"
        }
      ],
      "name": "getAccountBorrowedValue",
      "outputs": [
        {
          "internalType": "uint256",
          "name": "",
          "type": "uint256"
        }
      ],
      "stateMutability": "view",
      "type": "function"
    },
    {
      "inputs": [
        {
          "internalType": "address",
          "name": "user",
          "type": "address"
        }
      ],
      "name": "getAccountCollateralValue",
      "outputs": [
        {
          "internalType": "uint256",
          "name": "",
          "type": "uint256"
        }
      ],
      "stateMutability": "view",
      "type": "function"
    },
    {
      "inputs": [
        {
          "internalType": "address",
          "name": "user",
          "type": "address"
        }
      ],
      "name": "getAccountInformation",
      "outputs": [
        {
          "internalType": "uint256",
          "name": "borrowedValueInUSD",
          "type": "uint256"
        },
        {
          "internalType": "uint256",
          "name": "collateralValueInUSD",
          "type": "uint256"
        }
      ],
      "stateMutability": "view",
      "type": "function"
    },
    {
      "inputs": [
        {
          "internalType": "address",
          "name": "token",
          "type": "address"
        },
        {
          "internalType": "uint256",
          "name": "amountinusd",
          "type": "uint256"
        }
      ],
      "name": "getTokenValueFromUSD",
      "outputs": [
        {
          "internalType": "uint256",
          "name": "",
          "type": "uint256"
        }
      ],
      "stateMutability": "view",
      "type": "function"
    },
    {
      "inputs": [
        {
          "internalType": "address",
          "name": "token",
          "type": "address"
        },
        {
          "internalType": "uint256",
          "name": "amount",
          "type": "uint256"
        }
      ],
      "name": "getUSDValue",
      "outputs": [
        {
          "internalType": "uint256",
          "name": "",
          "type": "uint256"
        }
      ],
      "stateMutability": "view",
      "type": "function"
    },
    {
      "inputs": [
        {
          "internalType": "address",
          "name": "account",
          "type": "address"
        }
      ],
      "name": "healthFactor",
      "outputs": [
        {
          "internalType": "uint256",
          "name": "",
          "type": "uint256"
        }
      ],
      "stateMutability": "view",
      "type": "function"
    },
    {
      "inputs": [
        {
          "internalType": "address",
          "name": "",
          "type": "address"
        }
      ],
      "name": "lastValue",
      "outputs": [
        {
          "internalType": "int256",
          "name": "",
          "type": "int256"
        }
      ],
      "stateMutability": "view",
      "type": "function"
    },
    {
      "inputs": [
        {
          "internalType": "address",
          "name": "account",
          "type": "address"
        },
        {
          "internalType": "address",
          "name": "repayToken",
          "type": "address"
        },
        {
          "internalType": "address",
          "name": "rewardToken",
          "type": "address"
        }
      ],
      "name": "liquidate",
      "outputs": [],
      "stateMutability": "nonpayable",
      "type": "function"
    },
    {
      "inputs": [],
      "name": "owner",
      "outputs": [
        {
          "internalType": "address",
          "name": "",
          "type": "address"
        }
      ],
      "stateMutability": "view",
      "type": "function"
    },
    {
      "inputs": [],
      "name": "renounceOwnership",
      "outputs": [],
      "stateMutability": "nonpayable",
      "type": "function"
    },
    {
      "inputs": [
        {
          "internalType": "address",
          "name": "token",
          "type": "address"
        },
        {
          "internalType": "uint256",
          "name": "amount",
          "type": "uint256"
        }
      ],
      "name": "repay",
      "outputs": [],
      "stateMutability": "nonpayable",
      "type": "function"
    },
    {
      "inputs": [
        {
          "internalType": "address",
          "name": "",
          "type": "address"
        },
        {
          "internalType": "address",
          "name": "",
          "type": "address"
        }
      ],
      "name": "s_accountToTokenBorrows",
      "outputs": [
        {
          "internalType": "uint256",
          "name": "",
          "type": "uint256"
        }
      ],
      "stateMutability": "view",
      "type": "function"
    },
    {
      "inputs": [
        {
          "internalType": "address",
          "name": "",
          "type": "address"
        },
        {
          "internalType": "address",
          "name": "",
          "type": "address"
        }
      ],
      "name": "s_accountToTokenDeposits",
      "outputs": [
        {
          "internalType": "uint256",
          "name": "",
          "type": "uint256"
        }
      ],
      "stateMutability": "view",
      "type": "function"
    },
    {
      "inputs": [
        {
          "internalType": "uint256",
          "name": "",
          "type": "uint256"
        }
      ],
      "name": "s_allowedTokens",
      "outputs": [
        {
          "internalType": "address",
          "name": "",
          "type": "address"
        }
      ],
      "stateMutability": "view",
      "type": "function"
    },
    {
      "inputs": [
        {
          "internalType": "address",
          "name": "token",
          "type": "address"
        },
        {
          "internalType": "address",
          "name": "priceFeed",
          "type": "address"
        }
      ],
      "name": "setAllowedToken",
      "outputs": [],
      "stateMutability": "nonpayable",
      "type": "function"
    },
    {
      "inputs": [
        {
          "internalType": "address",
          "name": "newOwner",
          "type": "address"
        }
      ],
      "name": "transferOwnership",
      "outputs": [],
      "stateMutability": "nonpayable",
      "type": "function"
    },
    {
      "inputs": [
        {
          "internalType": "address",
          "name": "token",
          "type": "address"
        },
        {
          "internalType": "uint256",
          "name": "amount",
          "type": "uint256"
        }
      ],
      "name": "withdraw",
      "outputs": [],
      "stateMutability": "nonpayable",
      "type": "function"
    }
  ],
  "bytecode": "0x60806040523480156200001157600080fd5b5060016000819055506200003a6200002e6200004060201b60201c565b6200004860201b60201c565b6200010e565b600033905090565b6000600160009054906101000a900473ffffffffffffffffffffffffffffffffffffffff16905081600160006101000a81548173ffffffffffffffffffffffffffffffffffffffff021916908373ffffffffffffffffffffffffffffffffffffffff1602179055508173ffffffffffffffffffffffffffffffffffffffff168173ffffffffffffffffffffffffffffffffffffffff167f8be0079c531659141344cd1fd0a4f28419497f9722a3daafe3b4186f6b6457e060405160405180910390a35050565b612ab2806200011e6000396000f3fe608060405234801561001057600080fd5b506004361061014d5760003560e01c80638da5cb5b116100c3578063c183f76d1161007c578063c183f76d146103eb578063ca5ce2ec14610407578063df80eed214610423578063f2fde38b14610441578063f3fef3a31461045d578063fa76dcf2146104795761014d565b80638da5cb5b1461030157806390a8ae9b1461031f5780639b35678d1461033d578063a83a4f6a1461036d578063ad0d75941461039d578063ba03e93f146103bb5761014d565b80634f0cc2fa116101155780634f0cc2fa146102065780636ad9f9df14610236578063715018a6146102665780637be564fc146102705780637d1a4450146102a157806386ae5af8146102d15761014d565b80630af8c88e1461015257806322867d7814610182578063396aaa8f1461019e57806347e7ef24146101ce5780634b8a3529146101ea575b600080fd5b61016c60048036038101906101679190612251565b6104a9565b6040516101799190612413565b60405180910390f35b61019c600480360381019061019791906121b7565b6104e8565b005b6101b860048036038101906101b39190612124565b6106b8565b6040516101c591906125c9565b60405180910390f35b6101e860048036038101906101e391906121b7565b6106dd565b005b61020460048036038101906101ff91906121b7565b610a00565b005b610220600480360381019061021b91906120f7565b610e3f565b60405161022d91906125c9565b60405180910390f35b610250600480360381019061024b91906120f7565b610f56565b60405161025d91906125c9565b60405180910390f35b61026e610fcc565b005b61028a600480360381019061028591906120f7565b611054565b60405161029892919061260d565b60405180910390f35b6102bb60048036038101906102b691906120f7565b611072565b6040516102c891906125c9565b60405180910390f35b6102eb60048036038101906102e691906120f7565b611189565b6040516102f89190612413565b60405180910390f35b6103096111bc565b6040516103169190612413565b60405180910390f35b6103276111e6565b60405161033491906125c9565b60405180910390f35b61035760048036038101906103529190612124565b6111eb565b60405161036491906125c9565b60405180910390f35b610387600480360381019061038291906121b7565b611210565b60405161039491906125c9565b60405180910390f35b6103a5611334565b6040516103b291906125c9565b60405180910390f35b6103d560048036038101906103d091906120f7565b611339565b6040516103e2919061248e565b60405180910390f35b61040560048036038101906104009190612124565b611351565b005b610421600480360381019061041c9190612164565b6115b9565b005b61042b611812565b60405161043891906125c9565b60405180910390f35b61045b600480360381019061045691906120f7565b61181e565b005b610477600480360381019061047291906121b7565b611916565b005b610493600480360381019061048e91906121b7565b611b25565b6040516104a091906125c9565b60405180910390f35b600481815481106104b957600080fd5b906000526020600020016000915054906101000a900473ffffffffffffffffffffffffffffffffffffffff1681565b6002600054141561052e576040517f08c379a0000000000000000000000000000000000000000000000000000000008152600401610525906125a9565b60405180910390fd5b600260008190555081600073ffffffffffffffffffffffffffffffffffffffff16600260008373ffffffffffffffffffffffffffffffffffffffff1673ffffffffffffffffffffffffffffffffffffffff16815260200190815260200160002060009054906101000a900473ffffffffffffffffffffffffffffffffffffffff1673ffffffffffffffffffffffffffffffffffffffff16141561060857806040517f94403b700000000000000000000000000000000000000000000000000000000081526004016105ff9190612413565b60405180910390fd5b816000811415610644576040517ff45911f000000000000000000000000000000000000000000000000000000000815260040160405180910390fd5b828473ffffffffffffffffffffffffffffffffffffffff163373ffffffffffffffffffffffffffffffffffffffff167f05f2eeda0e08e4b437f487c8d7d29b14537d15e3488170dc3de5dbdf8dac468460405160405180910390a46106aa338585611c3d565b505060016000819055505050565b6005602052816000526040600020602052806000526040600020600091509150505481565b60026000541415610723576040517f08c379a000000000000000000000000000000000000000000000000000000000815260040161071a906125a9565b60405180910390fd5b600260008190555081600073ffffffffffffffffffffffffffffffffffffffff16600260008373ffffffffffffffffffffffffffffffffffffffff1673ffffffffffffffffffffffffffffffffffffffff16815260200190815260200160002060009054906101000a900473ffffffffffffffffffffffffffffffffffffffff1673ffffffffffffffffffffffffffffffffffffffff1614156107fd57806040517f94403b700000000000000000000000000000000000000000000000000000000081526004016107f49190612413565b60405180910390fd5b816000811415610839576040517ff45911f000000000000000000000000000000000000000000000000000000000815260040160405180910390fd5b828473ffffffffffffffffffffffffffffffffffffffff163373ffffffffffffffffffffffffffffffffffffffff167f5548c837ab068cf56a2c2479df0882a4922fd203edb7517321831d95078c5f6260405160405180910390a482600560003373ffffffffffffffffffffffffffffffffffffffff1673ffffffffffffffffffffffffffffffffffffffff16815260200190815260200160002060008673ffffffffffffffffffffffffffffffffffffffff1673ffffffffffffffffffffffffffffffffffffffff16815260200190815260200160002060008282546109209190612647565b9250508190555060008473ffffffffffffffffffffffffffffffffffffffff166323b872dd3330876040518463ffffffff1660e01b81526004016109669392919061242e565b602060405180830381600087803b15801561098057600080fd5b505af1158015610994573d6000803e3d6000fd5b505050506040513d601f19601f820116820180604052508101906109b891906121f7565b9050806109f1576040517f90b8ec1800000000000000000000000000000000000000000000000000000000815260040160405180910390fd5b50505060016000819055505050565b60026000541415610a46576040517f08c379a0000000000000000000000000000000000000000000000000000000008152600401610a3d906125a9565b60405180910390fd5b600260008190555081600073ffffffffffffffffffffffffffffffffffffffff16600260008373ffffffffffffffffffffffffffffffffffffffff1673ffffffffffffffffffffffffffffffffffffffff16815260200190815260200160002060009054906101000a900473ffffffffffffffffffffffffffffffffffffffff1673ffffffffffffffffffffffffffffffffffffffff161415610b2057806040517f94403b70000000000000000000000000000000000000000000000000000000008152600401610b179190612413565b60405180910390fd5b816000811415610b5c576040517ff45911f000000000000000000000000000000000000000000000000000000000815260040160405180910390fd5b828473ffffffffffffffffffffffffffffffffffffffff166370a08231306040518263ffffffff1660e01b8152600401610b969190612413565b60206040518083038186803b158015610bae57600080fd5b505afa158015610bc2573d6000803e3d6000fd5b505050506040513d601f19601f82011682018060405250810190610be6919061227e565b1015610c27576040517f08c379a0000000000000000000000000000000000000000000000000000000008152600401610c1e90612529565b60405180910390fd5b82600660003373ffffffffffffffffffffffffffffffffffffffff1673ffffffffffffffffffffffffffffffffffffffff16815260200190815260200160002060008673ffffffffffffffffffffffffffffffffffffffff1673ffffffffffffffffffffffffffffffffffffffff1681526020019081526020016000206000828254610cb39190612647565b92505081905550828473ffffffffffffffffffffffffffffffffffffffff163373ffffffffffffffffffffffffffffffffffffffff167f312a5e5e1079f5dda4e95dbbd0b908b291fd5b992ef22073643ab691572c5b5260405160405180910390a460008473ffffffffffffffffffffffffffffffffffffffff1663a9059cbb33866040518363ffffffff1660e01b8152600401610d52929190612465565b602060405180830381600087803b158015610d6c57600080fd5b505af1158015610d80573d6000803e3d6000fd5b505050506040513d601f19601f82011682018060405250810190610da491906121f7565b905080610ddd576040517f90b8ec1800000000000000000000000000000000000000000000000000000000815260040160405180910390fd5b670de0b6b3a7640000610def33610f56565b1015610e30576040517f08c379a0000000000000000000000000000000000000000000000000000000008152600401610e2790612589565b60405180910390fd5b50505060016000819055505050565b6000806000905060005b600480549050811015610f4c57600060048281548110610e6c57610e6b612855565b5b9060005260206000200160009054906101000a900473ffffffffffffffffffffffffffffffffffffffff1690506000600660008773ffffffffffffffffffffffffffffffffffffffff1673ffffffffffffffffffffffffffffffffffffffff16815260200190815260200160002060008373ffffffffffffffffffffffffffffffffffffffff1673ffffffffffffffffffffffffffffffffffffffff1681526020019081526020016000205490506000610f268383611b25565b90508085610f349190612647565b94505050508080610f44906127ae565b915050610e49565b5080915050919050565b6000806000610f6484611054565b9150915060006064605083610f7991906126ce565b610f83919061269d565b90506000831415610fa25768056bc75e2d631000009350505050610fc7565b82670de0b6b3a764000082610fb791906126ce565b610fc1919061269d565b93505050505b919050565b610fd4611da0565b73ffffffffffffffffffffffffffffffffffffffff16610ff26111bc565b73ffffffffffffffffffffffffffffffffffffffff1614611048576040517f08c379a000000000000000000000000000000000000000000000000000000000815260040161103f90612549565b60405180910390fd5b6110526000611da8565b565b60008061106083610e3f565b915061106b83611072565b9050915091565b6000806000905060005b60048054905081101561117f5760006004828154811061109f5761109e612855565b5b9060005260206000200160009054906101000a900473ffffffffffffffffffffffffffffffffffffffff1690506000600560008773ffffffffffffffffffffffffffffffffffffffff1673ffffffffffffffffffffffffffffffffffffffff16815260200190815260200160002060008373ffffffffffffffffffffffffffffffffffffffff1673ffffffffffffffffffffffffffffffffffffffff16815260200190815260200160002054905060006111598383611b25565b905080856111679190612647565b94505050508080611177906127ae565b91505061107c565b5080915050919050565b60026020528060005260406000206000915054906101000a900473ffffffffffffffffffffffffffffffffffffffff1681565b6000600160009054906101000a900473ffffffffffffffffffffffffffffffffffffffff16905090565b605081565b6006602052816000526040600020602052806000526040600020600091509150505481565b6000806000600260008673ffffffffffffffffffffffffffffffffffffffff1673ffffffffffffffffffffffffffffffffffffffff16815260200190815260200160002060009054906101000a900473ffffffffffffffffffffffffffffffffffffffff16905060008192508273ffffffffffffffffffffffffffffffffffffffff1663053f14da6040518163ffffffff1660e01b815260040160206040518083038186803b1580156112c257600080fd5b505afa1580156112d6573d6000803e3d6000fd5b505050506040513d601f19601f820116820180604052508101906112fa9190612224565b9050620f42408161130b919061269d565b670de0b6b3a76400008661131f91906126ce565b611329919061269d565b935050505092915050565b600581565b60036020528060005260406000206000915090505481565b611359611da0565b73ffffffffffffffffffffffffffffffffffffffff166113776111bc565b73ffffffffffffffffffffffffffffffffffffffff16146113cd576040517f08c379a00000000000000000000000000000000000000000000000000000000081526004016113c490612549565b60405180910390fd5b600080600480549050905060005b81811015611471578473ffffffffffffffffffffffffffffffffffffffff166004828154811061140e5761140d612855565b5b9060005260206000200160009054906101000a900473ffffffffffffffffffffffffffffffffffffffff1673ffffffffffffffffffffffffffffffffffffffff16141561145e5760019250611471565b8080611469906127ae565b9150506113db565b50816114db576004849080600181540180825580915050600190039060005260206000200160009091909190916101000a81548173ffffffffffffffffffffffffffffffffffffffff021916908373ffffffffffffffffffffffffffffffffffffffff1602179055505b82600260008673ffffffffffffffffffffffffffffffffffffffff1673ffffffffffffffffffffffffffffffffffffffff16815260200190815260200160002060006101000a81548173ffffffffffffffffffffffffffffffffffffffff021916908373ffffffffffffffffffffffffffffffffffffffff1602179055508273ffffffffffffffffffffffffffffffffffffffff168473ffffffffffffffffffffffffffffffffffffffff167f4f9bd0d8360fd59a62c52cf8b386f7c7b65097c9e336e860d08ffb9df34067d160405160405180910390a350505050565b600260005414156115ff576040517f08c379a00000000000000000000000000000000000000000000000000000000081526004016115f6906125a9565b60405180910390fd5b6002600081905550670de0b6b3a764000061161984610f56565b10611659576040517f08c379a000000000000000000000000000000000000000000000000000000000815260040161165090612569565b60405180910390fd5b60006002600660008673ffffffffffffffffffffffffffffffffffffffff1673ffffffffffffffffffffffffffffffffffffffff16815260200190815260200160002060008573ffffffffffffffffffffffffffffffffffffffff1673ffffffffffffffffffffffffffffffffffffffff168152602001908152602001600020546116e4919061269d565b905060006116f28483611b25565b905060008111611737576040517f08c379a000000000000000000000000000000000000000000000000000000000815260040161172e906124c9565b60405180910390fd5b6000606460058361174891906126ce565b611752919061269d565b9050600061176b8584846117669190612647565b611210565b90508473ffffffffffffffffffffffffffffffffffffffff168673ffffffffffffffffffffffffffffffffffffffff168873ffffffffffffffffffffffffffffffffffffffff167fcea6068021f706074af611c2a4b6b08820c5b8223a80149684c64c60ce7be3cc86336040516117e39291906125e4565b60405180910390a46117f6878786611c3d565b611801878683611e6e565b505050506001600081905550505050565b670de0b6b3a764000081565b611826611da0565b73ffffffffffffffffffffffffffffffffffffffff166118446111bc565b73ffffffffffffffffffffffffffffffffffffffff161461189a576040517f08c379a000000000000000000000000000000000000000000000000000000000815260040161189190612549565b60405180910390fd5b600073ffffffffffffffffffffffffffffffffffffffff168173ffffffffffffffffffffffffffffffffffffffff16141561190a576040517f08c379a0000000000000000000000000000000000000000000000000000000008152600401611901906124a9565b60405180910390fd5b61191381611da8565b50565b6002600054141561195c576040517f08c379a0000000000000000000000000000000000000000000000000000000008152600401611953906125a9565b60405180910390fd5b60026000819055508060008114156119a0576040517ff45911f000000000000000000000000000000000000000000000000000000000815260040160405180910390fd5b81600560003373ffffffffffffffffffffffffffffffffffffffff1673ffffffffffffffffffffffffffffffffffffffff16815260200190815260200160002060008573ffffffffffffffffffffffffffffffffffffffff1673ffffffffffffffffffffffffffffffffffffffff168152602001908152602001600020541015611a5f576040517f08c379a0000000000000000000000000000000000000000000000000000000008152600401611a5690612509565b60405180910390fd5b818373ffffffffffffffffffffffffffffffffffffffff163373ffffffffffffffffffffffffffffffffffffffff167f9b1bfa7fa9ee420a16e124f794c35ac9f90472acc99140eb2f6447c714cad8eb60405160405180910390a4611ac5338484611e6e565b670de0b6b3a7640000611ad733610f56565b1015611b18576040517f08c379a0000000000000000000000000000000000000000000000000000000008152600401611b0f90612589565b60405180910390fd5b5060016000819055505050565b6000806000600260008673ffffffffffffffffffffffffffffffffffffffff1673ffffffffffffffffffffffffffffffffffffffff16815260200190815260200160002060009054906101000a900473ffffffffffffffffffffffffffffffffffffffff16905060008192508273ffffffffffffffffffffffffffffffffffffffff1663053f14da6040518163ffffffff1660e01b815260040160206040518083038186803b158015611bd757600080fd5b505afa158015611beb573d6000803e3d6000fd5b505050506040513d601f19601f82011682018060405250810190611c0f9190612224565b905069d3c21bcecceda10000008582611c2891906126ce565b611c32919061269d565b935050505092915050565b80600660008573ffffffffffffffffffffffffffffffffffffffff1673ffffffffffffffffffffffffffffffffffffffff16815260200190815260200160002060008473ffffffffffffffffffffffffffffffffffffffff1673ffffffffffffffffffffffffffffffffffffffff1681526020019081526020016000206000828254611cc99190612728565b9250508190555060008273ffffffffffffffffffffffffffffffffffffffff166323b872dd3330856040518463ffffffff1660e01b8152600401611d0f9392919061242e565b602060405180830381600087803b158015611d2957600080fd5b505af1158015611d3d573d6000803e3d6000fd5b505050506040513d601f19601f82011682018060405250810190611d6191906121f7565b905080611d9a576040517f90b8ec1800000000000000000000000000000000000000000000000000000000815260040160405180910390fd5b50505050565b600033905090565b6000600160009054906101000a900473ffffffffffffffffffffffffffffffffffffffff16905081600160006101000a81548173ffffffffffffffffffffffffffffffffffffffff021916908373ffffffffffffffffffffffffffffffffffffffff1602179055508173ffffffffffffffffffffffffffffffffffffffff168173ffffffffffffffffffffffffffffffffffffffff167f8be0079c531659141344cd1fd0a4f28419497f9722a3daafe3b4186f6b6457e060405160405180910390a35050565b80600560008573ffffffffffffffffffffffffffffffffffffffff1673ffffffffffffffffffffffffffffffffffffffff16815260200190815260200160002060008473ffffffffffffffffffffffffffffffffffffffff1673ffffffffffffffffffffffffffffffffffffffff168152602001908152602001600020541015611f2d576040517f08c379a0000000000000000000000000000000000000000000000000000000008152600401611f24906124e9565b60405180910390fd5b80600560008573ffffffffffffffffffffffffffffffffffffffff1673ffffffffffffffffffffffffffffffffffffffff16815260200190815260200160002060008473ffffffffffffffffffffffffffffffffffffffff1673ffffffffffffffffffffffffffffffffffffffff1681526020019081526020016000206000828254611fb99190612728565b9250508190555060008273ffffffffffffffffffffffffffffffffffffffff1663a9059cbb33846040518363ffffffff1660e01b8152600401611ffd929190612465565b602060405180830381600087803b15801561201757600080fd5b505af115801561202b573d6000803e3d6000fd5b505050506040513d601f19601f8201168201806040525081019061204f91906121f7565b905080612088576040517f90b8ec1800000000000000000000000000000000000000000000000000000000815260040160405180910390fd5b50505050565b60008135905061209d81612a20565b92915050565b6000815190506120b281612a37565b92915050565b6000815190506120c781612a4e565b92915050565b6000813590506120dc81612a65565b92915050565b6000815190506120f181612a65565b92915050565b60006020828403121561210d5761210c612884565b5b600061211b8482850161208e565b91505092915050565b6000806040838503121561213b5761213a612884565b5b60006121498582860161208e565b925050602061215a8582860161208e565b9150509250929050565b60008060006060848603121561217d5761217c612884565b5b600061218b8682870161208e565b935050602061219c8682870161208e565b92505060406121ad8682870161208e565b9150509250925092565b600080604083850312156121ce576121cd612884565b5b60006121dc8582860161208e565b92505060206121ed858286016120cd565b9150509250929050565b60006020828403121561220d5761220c612884565b5b600061221b848285016120a3565b91505092915050565b60006020828403121561223a57612239612884565b5b6000612248848285016120b8565b91505092915050565b60006020828403121561226757612266612884565b5b6000612275848285016120cd565b91505092915050565b60006020828403121561229457612293612884565b5b60006122a2848285016120e2565b91505092915050565b6122b48161275c565b82525050565b6122c38161277a565b82525050565b60006122d6602683612636565b91506122e182612889565b604082019050919050565b60006122f9601e83612636565b9150612304826128d8565b602082019050919050565b600061231c601c83612636565b915061232782612901565b602082019050919050565b600061233f601083612636565b915061234a8261292a565b602082019050919050565b6000612362601b83612636565b915061236d82612953565b602082019050919050565b6000612385602083612636565b91506123908261297c565b602082019050919050565b60006123a8601c83612636565b91506123b3826129a5565b602082019050919050565b60006123cb601b83612636565b91506123d6826129ce565b602082019050919050565b60006123ee601f83612636565b91506123f9826129f7565b602082019050919050565b61240d816127a4565b82525050565b600060208201905061242860008301846122ab565b92915050565b600060608201905061244360008301866122ab565b61245060208301856122ab565b61245d6040830184612404565b949350505050565b600060408201905061247a60008301856122ab565b6124876020830184612404565b9392505050565b60006020820190506124a360008301846122ba565b92915050565b600060208201905081810360008301526124c2816122c9565b9050919050565b600060208201905081810360008301526124e2816122ec565b9050919050565b600060208201905081810360008301526125028161230f565b9050919050565b6000602082019050818103600083015261252281612332565b9050919050565b6000602082019050818103600083015261254281612355565b9050919050565b6000602082019050818103600083015261256281612378565b9050919050565b600060208201905081810360008301526125828161239b565b9050919050565b600060208201905081810360008301526125a2816123be565b9050919050565b600060208201905081810360008301526125c2816123e1565b9050919050565b60006020820190506125de6000830184612404565b92915050565b60006040820190506125f96000830185612404565b61260660208301846122ab565b9392505050565b60006040820190506126226000830185612404565b61262f6020830184612404565b9392505050565b600082825260208201905092915050565b6000612652826127a4565b915061265d836127a4565b9250827fffffffffffffffffffffffffffffffffffffffffffffffffffffffffffffffff03821115612692576126916127f7565b5b828201905092915050565b60006126a8826127a4565b91506126b3836127a4565b9250826126c3576126c2612826565b5b828204905092915050565b60006126d9826127a4565b91506126e4836127a4565b9250817fffffffffffffffffffffffffffffffffffffffffffffffffffffffffffffffff048311821515161561271d5761271c6127f7565b5b828202905092915050565b6000612733826127a4565b915061273e836127a4565b925082821015612751576127506127f7565b5b828203905092915050565b600061276782612784565b9050919050565b60008115159050919050565b6000819050919050565b600073ffffffffffffffffffffffffffffffffffffffff82169050919050565b6000819050919050565b60006127b9826127a4565b91507fffffffffffffffffffffffffffffffffffffffffffffffffffffffffffffffff8214156127ec576127eb6127f7565b5b600182019050919050565b7f4e487b7100000000000000000000000000000000000000000000000000000000600052601160045260246000fd5b7f4e487b7100000000000000000000000000000000000000000000000000000000600052601260045260246000fd5b7f4e487b7100000000000000000000000000000000000000000000000000000000600052603260045260246000fd5b600080fd5b7f4f776e61626c653a206e6577206f776e657220697320746865207a65726f206160008201527f6464726573730000000000000000000000000000000000000000000000000000602082015250565b7f43686f6f7365206120646966666572656e74207265706179546f6b656e210000600082015250565b7f4e6f7420656e6f7567682066756e647320746f20776974686472617700000000600082015250565b7f4e6f7420656e6f7567682066756e647300000000000000000000000000000000600082015250565b7f4e6f7420656e6f75676820746f6b656e7320746f20626f72726f770000000000600082015250565b7f4f776e61626c653a2063616c6c6572206973206e6f7420746865206f776e6572600082015250565b7f4163636f756e742063616e2774206265206c6971756964617465642100000000600082015250565b7f506c6174666f726d2077696c6c20676f20696e736f6c76656e74210000000000600082015250565b7f5265656e7472616e637947756172643a207265656e7472616e742063616c6c00600082015250565b612a298161275c565b8114612a3457600080fd5b50565b612a408161276e565b8114612a4b57600080fd5b50565b612a578161277a565b8114612a6257600080fd5b50565b612a6e816127a4565b8114612a7957600080fd5b5056fea26469706673582212202664805683431b4035657e7cce855e81c8544592772bc911330c4c05fe9a947064736f6c63430008070033",
  "linkReferences": {},
  "deployedLinkReferences": {}
}